:020000040800F2
:10000000F8070020150D00081D0D00081F0D000841
:10001000210D0008230D0008250D00080000000038
:10002000000000000000000000000000270D000894
:10003000290D0008000000002B0D00082D0D000800
:100040002F0D00082F0D00082F0D00082F0D0008A0
:100050002F0D00082F0D00082F0D00082F0D000890
:100060002F0D00082F0D00082F0D00082F0D000880
:100070002F0D00082F0D00082F0D00082F0D000870
:100080002F0D00082F0D00082F0D00082F0D000860
:100090002F0D00082F0D00082F0D00082F0D000850
:1000A0002F0D00082F0D00082F0D00082F0D000840
:1000B0002F0D0008550C00082F0D00082F0D00080B
:1000C0002F0D00082F0D00082F0D00082F0D000820
:1000D0002F0D0008D93500082F0D00082F0D00083E
:1000E0002F0D00082F0D00082F0D00082F0D000800
:1000F0002F0D00082F0D00082F0D00082F0D0008F0
:100100002F0D00082F0D00082F0D00082F0D0008DF
:100110002F0D00082F0D00082F0D0008B30C00084C
:100120002F0D00082F0D00082F0D00082F0D0008BF
:1001300000F002F800F03AF80AA090E8000C8244BF
:100140008344AAF10107DA4501D100F02FF8AFF29C
:10015000090EBAE80F0013F0010F18BFFB1A43F0A5
:1001600001031847C8380000E8380000103A24BFDF
:1001700078C878C1FAD8520724BF30C830C144BF0C
:1001800004680C607047000000230024002500264E
:10019000103A28BF78C1FBD8520728BF30C148BFEA
:1001A0000B6070471FB51FBD10B510BD03F0E2FA1C
:1001B0001146FFF7F7FF00F0A3F903F000FB03B4CB
:1001C000FFF7F2FF03BC03F005FB000010B50229A6
:1001D00004D0032930D004293ED135E00378012B27
:1001E00029D14378012B03D10423FE4C236034E052
:1001F0004378022B03D10523FA4C23602DE043788A
:10020000032B03D10623F74C236026E04378042B0D
:1002100003D10723F34C23601FE04378052B03D160
:100220000823F04C236018E04378062B03D1092300
:10023000EC4C236011E000BF0378012B03D10A23AB
:10024000E84C236009E000BF0378012B03D10B23A6
:10025000E44C236001E000BF00BF00BF10BD10B53B
:100260004FF40041E04800F074FF40F2DC5000F031
:10027000B5FC4FF40041DC4800F069FF40F2DC506F
:1002800000F0ACFC10BD38B516254FF40071D7480E
:1002900000F05DFF4021D64801F076FB00287DD0BC
:1002A000D048006804280CD102F0A7FF4FF07E511F
:1002B000D048006803F096FACE4908600020C9498A
:1002C0000860C848006805281CD102F0F7FFFF202D
:1002D00003F0ACF9FF2003F0A9F9022003F0A6F91E
:1002E000002003F0A3F9022003F0A0F9012003F09D
:1002F0009DF9002003F09AF9052003F097F90020FA
:10030000B8490860B7480068062804D103F026F809
:100310000020B4490860B348006807281CD1FF20BA
:1003200003F084F9FF2003F081F9022003F07EF945
:10033000002003F07BF9022003F078F9012003F09C
:1003400075F9002003F072F9052003F06FF903F04E
:100350008CF80020A3490860A248006808281CD136
:10036000FF2003F063F9FF2003F060F9022003F09F
:100370005DF9002003F05AF9022003F057F901203B
:1003800003F054F9002003F051F9052003F04EF971
:1003900003F058F800209349086000E0A3E091487A
:1003A000006809281CD1FF2003F040F9FF2003F06A
:1003B0003DF9022003F03AF9002003F037F902205A
:1003C00003F034F9012003F031F9002003F02EF995
:1003D000052003F02BF902F097FF00208149086007
:1003E000804800680A281CD1FFF739FFFF2003F07E
:1003F0001DF9FF2003F01AF9032003F017F900207C
:1004000003F014F9022003F011F9012003F00EF9B2
:10041000002003F00BF9062003F008F900207149D1
:100420000860704800680B285DD1FF2003F0FEF8DB
:10043000FF2003F0FBF8042003F0F8F8002003F09D
:10044000F5F8112003F0F2F8012003F0EFF8694805
:1004500000680090002408E01DF8040003F0E6F8AE
:100460001DF80400284485B2641C042CF4DB6248A7
:1004700000680090002408E01DF8040003F0D6F89E
:100480001DF80400284485B2641C042CF4DB5B488E
:1004900000680090002408E01DF8040003F0C6F88E
:1004A0001DF80400284485B2641C042CF4DB544875
:1004B00000680090002408E01DF8040003F0B6F87E
:1004C0001DF80400284485B2641C042CF4DBFF20D2
:1004D00095FBF0F100FB115085B2E8B203F0A6F8ED
:1004E00000204049086000BF4021464801F04CFA16
:1004F0000028F9D04FF400713C4800F02AFE38BDC6
:10050000DEB04FF00008642145A803F009F904208B
:10051000449000BF4FF0A60B48F2646043904FF048
:100520000009482000F03EFB4FF4E13003F004F8EE
:1005300002F0DEFD4FF400712C4800F00AFE324854
:1005400002F0BAFF29E33148006801280DD10020EC
:100550002E4908600A21012002F0F8FD0746A7EBAA
:100560000B01439890FBF1F000BF274800788DF80D
:100570008000254840788DF88100234880788DF8E8
:1005800082002148C0788DF883001F4800798DF8DB
:1005900084001D4840798DF885001B4880798DF8CE
:1005A00086001948C0798DF887001748007A8DF8C1
:1005B00088001548407A8DF889001348807A8DF8B4
:1005C0008A001148C07A8DF88B000F48007B8DF8A7
:1005D0008C000D48407B8DF88D000B48807B8DF89A
:1005E0008E0015E000000020000C014000200140BA
:1005F00000380140100000201400002018000020E6
:100600001C0000200044004080000020200000204A
:10061000FE48C07B8DF88F00FC48007C8DF8900070
:10062000FA48407C8DF89100F848807C8DF8920063
:10063000F648C07C8DF89300F448007D8DF8940056
:10064000F248407D8DF89500F048807D8DF8960049
:10065000EE48C07D8DF89700EC48007E8DF898003C
:10066000EA48407E8DF89900E848807E8DF89A002F
:10067000E648C07E8DF89B00E448007F8DF89C0022
:10068000E248407F8DF89D00E048807F8DF89E0015
:10069000DE48C07F8DF89F00DC4890F820008DF880
:1006A000A000DA4890F821008DF8A100D74890F812
:1006B00022008DF8A200D54890F823008DF8A30001
:1006C000D24890F824008DF8A400D04890F8250076
:1006D0008DF8A500CD4890F826008DF8A600CB48EF
:1006E00090F827008DF8A700C84890F828008DF8EA
:1006F000A800C64890F829008DF8A900C34890F8D2
:100700002A008DF8AA00C14890F82B008DF8AB00A4
:10071000BE4890F82C008DF8AC00BC4890F82D0035
:100720008DF8AD00B94890F82E008DF8AE00B748AE
:1007300090F82F008DF8AF00B44890F830008DF895
:10074000B000B24890F831008DF8B100AF4890F891
:1007500032008DF8B200AD4890F833008DF8B30048
:10076000AA4890F834008DF8B400A84890F83500F5
:100770008DF8B500A54890F836008DF8B600A3486E
:1007800090F837008DF8B700A04890F838008DF841
:10079000B8009E4890F839008DF8B9009B4890F851
:1007A0003A008DF8BA00994890F83B008DF8BB00EC
:1007B000964890F83C008DF8BC00944890F83D00B5
:1007C0008DF8BD00914890F83E008DF8BE008F482E
:1007D00090F83F008DF8BF008C4890F840008DF8ED
:1007E000C0008A4890F841008DF8C100874890F811
:1007F00042008DF8C200854890F843008DF8C30090
:10080000824890F844008DF8C400804890F8450074
:100810008DF8C5007D4890F846008DF8C6007B48ED
:1008200090F847008DF8C700784890F848008DF898
:10083000C800764890F849008DF8C900734890F8D0
:100840004A008DF8CA00714890F84B008DF8CB0033
:100850006E4890F84C008DF8CC006C4890F84D0034
:100860008DF8CD00694890F84E008DF8CE006748AD
:1008700090F84F008DF8CF00644890F850008DF844
:10088000D000624890F851008DF8D1005F4890F890
:1008900052008DF8D2005D4890F853008DF8D300D7
:1008A0005A4890F854008DF8D400584890F85500F4
:1008B0008DF8D500554890F856008DF8D60053486D
:1008C00090F857008DF8D700504890F858008DF8F0
:1008D000D8004E4890F859008DF8D9004B4890F850
:1008E0005A008DF8DA00494890F85B008DF8DB007B
:1008F000464890F85C008DF8DC00444890F85D00B4
:100900008DF8DD00414890F85E008DF8DE003F482C
:1009100090F85F008DF8DF003C4890F860008DF89B
:10092000E0003A4890F861008DF8E100374890F80F
:1009300062008DF8E200354890F863008DF8E3001E
:10094000324890F864008DF8E400304890F8650073
:100950008DF8E5002D4890F866008DF8E6002B48EC
:1009600090F867008DF8E700284890F868008DF847
:10097000E800264890F869008DF8E900234890F8CF
:100980006A008DF8EA00214890F86B008DF8EB00C2
:100990001E4890F86C008DF8EC001C4890F86D0033
:1009A0008DF8ED00194890F86E008DF8EE001748AC
:1009B00090F86F008DF8EF00144890F870008DF8F3
:1009C000F000124890F871008DF8F1000F4890F88F
:1009D00072008DF8F2000D4890F873008DF8F30066
:1009E0000A4890F874008DF8F400084890F87500F3
:1009F0008DF8F500054890F876008DF8F60003486C
:100A000090F877008DF8F700004801E080000020A2
:100A100090F878008DF8F800604890F879008DF82B
:100A2000F9005E4890F87A008DF8FA005B4890F87B
:100A30007B008DF8FB00594890F87C008DF8FC0095
:100A4000564890F87D008DF8FD00544890F87E00DF
:100A50008DF8FE00514890F87F008DF8FF004F4858
:100A600090F880008DF800014C48D0F88400419047
:100A70004A48D0F888007C2224A94290684602F0B7
:100A80001DFE20A80FC802F03DFD00B185E04348DF
:100A900002F019FD0446B9F1080F79D2DFE809F038
:100AA000040D781538414C5BFF2C05D14FF001093E
:100AB00000203B49088080466DE0FF2C02D14FF0BA
:100AC000030901E04FF0000965E0022C08D1A246BD
:100AD000334800882044324908804FF0040916E06A
:100AE000032C08D1A2462E48008820442C490880B7
:100AF0004FF004090BE0042C07D1A24628480088D7
:100B0000204427490880A14601E04FF0000942E057
:100B10002348008820442249088025464FF00509D3
:100B200039E01F48008820441D49088044EA052018
:100B300006B24FF006092EE01948008820441849F3
:100B40000880404608F1010845A90C54B04501DB76
:100B50004FF007091FE012480088FF2190FBF1F2D7
:100B600001FB12000E4908800846008884420CD11F
:100B70003246514645A8FFF729FBFFF784FB0020CA
:100B800007490880814602E002E04FF0000902E0D8
:100B90004FF0000900BF00BF00BFD4E48000002078
:100BA000240000204FF0E021096921F004014FF0FA
:100BB000E0221161C21700EB5272C2F3C702234B4D
:100BC0001A701946097801EB4102C2EBC1114FF6C8
:100BD000FF7202EAC1011E4A1180704701461C4A99
:100BE00012884A434FF0E0235A6100229A610122A1
:100BF0001A6100BF4FF0E022106900F001021AB143
:100C000000F48032002AF5D000224FF0E0231A6170
:100C10009A61704701460D4A12784A434FF0E0232B
:100C20005A6100229A6101221A6100BF4FF0E0224E
:100C3000106900F001021AB100F48032002AF5D0E8
:100C400000224FF0E0231A619A61704728000020CB
:100C50002A00002010B50121244801F0E8FD0128F8
:100C600026D10121214801F0F3FD21480068401CF4
:100C70001F4908601F480088401C1E4908801C4806
:100C800000681D490968884212DD00201849086083
:100C9000194908600120194908601948006838B9E5
:100CA0000021184801F0FAFA0021104801F0F6FA84
:100CB00010BD10B50121144801F0B9FD012813D170
:100CC000124800684042114908600D480068012838
:100CD00003D10846006802F06BFA01200C49086055
:100CE0000121094801F0B4FD10BD000000040040DE
:100CF000300000202C000020700000207400002034
:100D0000780000200034014000140040340000202E
:100D1000200000200948804709480047FEE7FEE719
:100D2000FEE7FEE7FEE7FEE7FEE7FEE7FEE7FEE79B
:100D300004480549054A064B70470000330E000879
:100D400031010008F8010020F8070020F803002016
:100D5000F80300200CB50020019000906C4800685A
:100D600040F480306A49086000BF6948006800F4B8
:100D7000003000900198401C0190009818B901982B
:100D8000B0F5A06FF1D16248006800F4003010B1F6
:100D90000120009001E0002000900098012843D13C
:100DA0005C48006840F010005A4908600846006836
:100DB00020F0030008600846006840F00200086068
:100DC00053484068524948600846406848600846B1
:100DD000406840F4806048600846406820F47C1019
:100DE00048600846406840F4E810486008460068DB
:100DF00040F08070086000BF4548006800F0007057
:100E00000028F9D04248406820F00300404948607B
:100E10000846406840F00200486000BF3C48406817
:100E200000F00C000828F9D10CBD10B5FFF792FFB7
:100E300010BD10B53648006840F001003449086024
:100E4000084640683449084031494860084600680F
:100E5000324908402E4908600846006820F4802086
:100E600008600846406820F4FE0048604FF41F0008
:100E70008860FFF7DAFF4FF000602949086010BD75
:100E800010B5002100200022214B5B6803F00C010B
:100E900021B1042906D0082928D107E0214B224C92
:100EA000236027E01F4B204C236023E0184B5B6836
:100EB00003F47010164B5B6803F48032022303EBDB
:100EC000904022B9194B4343174C23600DE0104B5F
:100ED0005B6803F4003323B1144B4343124C23608B
:100EE00003E0104B4343104C236003E00D4B0E4CCA
:100EF000236000BF00BF064B5B68C3F303130C4CB9
:100F0000E15C094B1B68CB40074C236010BD00001F
:100F100000100240002002400000FFF8FFFFF6FE34
:100F200008ED00E000127A003800002000093D00C2
:100F30003C00002010B50446CC48844208D1012171
:100F4000042000F02DFB0021042000F029FB46E0E6
:100F5000C748844208D10121082000F021FB00216C
:100F6000082000F01DFB3AE0C248844208D101216C
:100F7000102000F015FB0021102000F011FB2EE0E6
:100F8000BD48844208D10121202000F009FB002146
:100F9000202000F005FB22E0B848844208D101215E
:100FA000402000F0FDFA0021402000F0F9FA16E0A0
:100FB000B348844208D10121802000F0F1FA0021D9
:100FC000802000F0EDFA0AE0AE48844207D101210A
:100FD000801500F0E5FA0021A01500F0E1FA10BD3F
:100FE00010B50121084600F0DBFA0021012000F0D5
:100FF000D7FA10BD2DE9F041024600250026002059
:1010000000230024002791F803C00CF00F0591F88D
:1010100003C00CF0100CBCF1000F03D091F802C01B
:101020004CEA050591F800C0BCF1000F31D01468FE
:1010300000202BE04FF0010C0CFA00F3B1F800C0D7
:101040000CEA03069E4220D183004FF00F0C0CFAED
:1010500003F7BC4305FA03FC4CEA040491F803C00F
:10106000BCF1280F06D14FF0010C0CFA00FCC2F8BD
:1010700014C00AE091F803C0BCF1480F05D14FF04D
:10108000010C0CFA00FCC2F810C0401C0828D1D397
:101090001460B1F800C0BCF1FF0F34DD54680020CB
:1010A0002EE000F1080C4FF0010808FA0CF3B1F83B
:1010B00000C00CEA03069E4221D183004FF00F0CC2
:1010C0000CFA03F7BC4305FA03FC4CEA040491F85C
:1010D00003C0BCF1280F05D100F1080C08FA0CF888
:1010E000C2F8148091F803C0BCF1480F07D100F199
:1010F000080C4FF0010808FA0CF8C2F81080401CE8
:101100000828CED35460BDE8F0814FF6FF7101800E
:10111000022181700421C17070470246002093684B
:101120000B400BB1012000E00020704701468868A9
:1011300080B2704702460020D3680B400BB10120FB
:1011400000E0002070470146C86880B27047016126
:101150007047416170470AB1016100E04161704729
:10116000C16070474FF480320A43826181618261BD
:1011700082698269704702460020434B18684FF627
:101180008073184040EA021008433F4B18607047D4
:101190003E49C8617047F0B50A460023002400218B
:1011A000002500F00046B6F1004F02D1364EF1693D
:1011B00001E0354E7168C0F3034583B200F4401678
:1011C000B6F5401F08D121F070612F4E766826F0E9
:1011D00070662D4F7E6012E000F48016B6F5801F19
:1011E00006D1032606FA05F4A14341F0706106E03A
:1011F000460D360103FA06F6B14341F0706122B1A3
:10120000460D360103FA06F6314300F00046B6F10A
:10121000004F02D11C4EF16101E01B4E7160F0BD28
:1012200030B500228B071C0F0F2303FA04F2164B74
:1012300008338C1053F824309343134C08348D102A
:1012400044F8253023468C1053F824308C07240FA3
:1012500000FA04F423430C4C08348D1044F8253074
:1012600030BD0A49DC3108607047000000080140C9
:10127000000C014000100140001401400018014022
:10128000001C0140002001400000014000002042FD
:10129000DF48006840F00100DD490860084640680A
:1012A000DC490840DA49486008460068DA490840E5
:1012B000D74908600846006820F480200860084686
:1012C000406820F4FE0048604FF41F0088607047BB
:1012D000CF49096821F48031CD4A1160114609686F
:1012E00021F480211160B0F5803F03D0B0F5802F4C
:1012F0000ED106E0C649096841F48031C44A116044
:1013000007E0C349096841F4A021C14A116000E027
:1013100000BF00BF704710B5014600220023002027
:101320004A11012A02D1BA4C236806E0022A02D1EE
:10133000B74C236A01E0B64C636A01F01F02012436
:1013400094401C400CB1012000E0002010BD38B5D5
:10135000002000900024002500BF3120FFF7DBFFB4
:1013600005460098401C00900098B0F5A06F01D091
:10137000002DF2D03120FFF7CEFF08B1012400E0AC
:101380000024204638BD01460020A14A106820F004
:10139000F80040EAC10010607047A049086070473B
:1013A000024600209A4B586820F47C1042EA010360
:1013B0001843974B58607047984908667047014634
:1013C0000020934A506820F00300084350607047A3
:1013D0008F48406800F00C007047014600208C4A9E
:1013E000506820F0F000084350607047014600202C
:1013F000874A506820F4E060084350607047014617
:101400000020834A506820F4605040EAC1005060D8
:10141000704729B17E4A527A02437D4B5A7204E0EA
:101420007B4A527A82437A4B5A7270477B49D83151
:101430000860704701460020754A506820F440401B
:101440000843506070470021714A20321170704A81
:1014500082F82010012802D004280AD104E00121DA
:101460006B4A2032117005E00521694A2032117063
:1014700000E000BF00BF70476949086070476449D9
:10148000096A0143624A116270476549443908603C
:10149000704730B500210022002400235C4D6D68A8
:1014A00005F00C0121B1042905D0082923D105E05C
:1014B0005C4D056022E05B4D05601FE0544D6D689A
:1014C00005F47012524D6D6805F48034022505EB69
:1014D00092421CB9544D554305600BE04C4D6D686C
:1014E00005F400351DB1504D5543056002E04D4DEA
:1014F0005543056002E04B4D056000BF00BF444D01
:101500006D6805F0F0010909484D6B5C0568DD4028
:1015100045603F4D6D6805F4E061090A434D6B5C21
:101520004568DD4085603A4D6D6805F46051C90A33
:101530003E4D6B5C4568DD40C560354D6D6805F41A
:101540004041890B3A4D6B5CC568B5FBF3F505610D
:1015500030BD29B12E4A526902432D4B5A6104E035
:101560002B4A526982432A4B5A61704729B1284A53
:1015700092690243264B9A6104E0254A92698243AC
:10158000234B9A61704729B1214AD2690243204B0B
:10159000DA6104E01E4AD26982431D4BDA6170476A
:1015A00029B11B4AD2680243194BDA6004E0184A99
:1015B000D2688243164BDA60704729B1144A126927
:1015C0000243134B1A6104E0114A12698243104B23
:1015D0001A61704712494039086070470F49C86462
:1015E00070470B49C87170470948406A40F08070E5
:1015F00007494862704701460020054A92680A4040
:101600000AB1012000E0002070470149887270474C
:10161000001002400000FFF8FFFFF6FE000042420B
:101620008004424200127A0000093D004C00002074
:101630005C00002010B50446FB48844209D101211A
:101640008803FFF7ADFF00214FF48040FFF7A8FFAC
:1016500032E0F648844209D101214804FFF7ADFF8A
:1016600000214FF40030FFF7A8FF25E0F048844246
:1016700009D101218804FFF7A0FF00214FF4802049
:10168000FFF79BFF18E0EB48844209D10121C80411
:10169000FFF793FF00214FF40020FFF78EFF0BE0D0
:1016A000E548844208D101210805FFF786FF0021A3
:1016B0004FF48010FFF781FF10BD2DE9F04786B091
:1016C00005460E460024A24600BFA1460027B08969
:1016D00000B100BF2F462C8A4CF6FF700440F08802
:1016E00004432C82AC894EF6F3100440B088318953
:1016F0000843718908430443AC81AC8A4FF6FF402C
:101700000440B0890443AC8201A8FFF7C2FEC6487A
:10171000874202D1DDF810A001E0DDF80CA0A88915
:1017200000F4004040B10AEBCA0000EB0A10316837
:101730004900B0FBF1F807E00AEBCA0000EB0A1021
:1017400031688900B0FBF1F86420B8FBF0F00401C7
:101750002009642101FB1089A88900F4004040B1F0
:10176000322000EBC900B0FBF1F000F007000443A9
:1017700008E0322000EB09106421B0FBF1F000F02A
:101780000F0004432C8106B0BDE8F0874FF41651DA
:10179000016000218180C18001810C2141810021F3
:1017A0008181704710B502460020108A4FF2FF0376
:1017B00018400B884C8823438C882343CC882343D0
:1017C0001843108210BD0021018041808180C180BA
:1017D000704721B1828942F40052828104E08289FB
:1017E0004DF6FF731A4082817047F0B5034600241E
:1017F00000260025002040F66A17B94200D100BF3C
:101800001846C1F3421401F01F06012707FA06F536
:10181000012C01D10C3004E0022C01D1103000E089
:1018200014301AB107682F43076002E00768AF431E
:101830000760F0BD1AB1838A0B43838202E0838A7A
:101840008B4383827047028A4FF6F0731A400282FC
:10185000028A0A430282704782894FF2FF731A405C
:10186000828182890A438281704721B1828942F054
:101870000202828104E082894FF6FD731A40828160
:101880007047028A4FF6DF731A400282028A0A43C7
:101890000282704721B1028A42F48042028204E04F
:1018A000028A4BF6FF731A4002827047C1F30802A6
:1018B0008280704701468888C0F30800704781899C
:1018C00041F0010181817047028BD2B20283028B09
:1018D00042EA012202837047028B02F47F420283B4
:1018E000028B0A430283704721B1828A42F02002B0
:1018F000828204E0828A4FF6DF731A408282704748
:1019000021B1828A42F01002828204E0828A4FF67C
:10191000EF731A408282704721B1828A42F0080236
:10192000828204E0828A4FF6F7731A4082827047FF
:1019300021B1828942F40042828103E08289C2F3AC
:101940000E028281704721B1828A42F40062828253
:1019500004E0828A4FF2FF731A4082827047828AC3
:101960004FF6FB731A408282828A0A438282704752
:1019700021B1828A42F00202828204E0828A4FF61A
:10198000FD731A408282704702460020B1F5007F45
:1019900000D100BF13880B400BB1012000E00020F4
:1019A000704701F40072B2F5007F00D100BFCA4356
:1019B0000280704770B502460024002300250020F5
:1019C00040F66A16B14200D100BFC1F3421501F0E2
:1019D0001F03012606FA03F3012D02D19689334035
:1019E00006E0022D02D1168A334001E0968A334088
:1019F0000C12012606FA04F41688344013B10CB117
:101A0000012000E0002070BD10B50022002340F648
:101A10006A14A14200D100BF0A1201249440A3B26B
:101A2000DC43048010BD0000003801400044004049
:101A300000480040004C00400050004010B50446F3
:101A4000FE48844208D10121C014FFF7A9FD0021FE
:101A5000E014FFF7A5FDC4E0B4F1804F08D10121E7
:101A60000846FFF7AAFD00210120FFF7A6FDB8E018
:101A7000F348844208D101210220FFF79EFD002196
:101A80000220FFF79AFDACE0EE48844208D1012124
:101A90000420FFF792FD00210420FFF78EFDA0E057
:101AA000E948844208D101210820FFF786FD002182
:101AB0000820FFF782FD94E0E448844208D1012128
:101AC0001020FFF77AFD00211020FFF776FD88E057
:101AD000DF48844208D101212020FFF76EFD00215C
:101AE0002020FFF76AFD7CE0DA48844208D101211A
:101AF0004014FFF755FD00216014FFF751FD70E021
:101B0000D548844209D10121C804FFF749FD0021CD
:101B10004FF40020FFF744FD63E0D048844209D130
:101B200001210805FFF73CFD00214FF48010FFF76D
:101B300037FD56E0CA48844209D101214805FFF724
:101B40002FFD00214FF40010FFF72AFD49E0C548A2
:101B5000844208D101214020FFF72FFD00214020C1
:101B6000FFF72BFD3DE0C048844208D101218020D1
:101B7000FFF723FD00218020FFF71FFD31E0BB4868
:101B8000844208D101218015FFF717FD0021A0151F
:101B9000FFF713FD25E0B648844209D1012108046E
:101BA000FFF7FEFC00214FF48030FFF7F9FC18E04E
:101BB000B048844209D101214804FFF7F1FC00211B
:101BC0004FF40030FFF7ECFC0BE0AB48844208D147
:101BD00001218804FFF7E4FC00214FF48020FFF787
:101BE000DFFC10BD00220288944B98420ED0994B26
:101BF00098420BD0B0F1804F08D0914B984205D05D
:101C0000904B984202D0904B984204D14FF68F737C
:101C10001A404B881A438D4B984207D08C4B984200
:101C200004D04FF6FF431A40CB881A4302808B88BA
:101C300083850B880385814B98420BD0854B984256
:101C400008D08B4B984205D08A4B984202D08A4BE1
:101C5000984201D10B7A038601238382704770B5C5
:101C6000002400220023058C4FF6FE7635400584C3
:101C7000028C8388048B4FF68F752C40B51E2C4048
:101C80000D882C43751E2A400D892A434D882A430E
:101C90006A4DA8420BD06F4DA84208D0744DA8429F
:101CA00005D0744DA84202D0734DA84213D14FF60F
:101CB000F7752A404D892A434FF6FB752A408D88D7
:101CC0002A434FF6FF652B404FF6FF552B408D8979
:101CD0002B43CD892B4383800483CD888586028462
:101CE00070BD70B5002400220023058C4FF6EF76FE
:101CF00035400584028C8388048B48F6FF752C40A0
:101D00004FF6FF452C400D884FF6FF7606EA052575
:101D10002C434FF6DF752A400D8906EA05152A4344
:101D20004D8806EA05152A43444DA84202D0494D84
:101D3000A8421DD14FF67F752A404D894FF6FF7698
:101D400006EA05152A434FF6BF752A408D8806EA34
:101D500005152A434FF6FF352B404FF2FF752B40F8
:101D60008D8906EA85052B43CD8906EA85052B4337
:101D700083800483CD880587028470BD70B50024FC
:101D800000220023058C4FF6FF6635400584028C47
:101D90008388848B4FF68F752C404FF6FC752C4052
:101DA0000D882C434FF6FF552A400D894FF6FF76DC
:101DB00006EA05252A434D8806EA05252A431F4DD4
:101DC000A84202D0234DA8421DD14FF2FF752A40F0
:101DD0004D894FF6FF7606EA05252A434FF6FF3573
:101DE0002A408D8806EA05252A434EF6FF752B40CA
:101DF0004DF6FF752B408D8906EA05152B43CD89DD
:101E000006EA05152B4383808483CD888587028469
:101E100070BD70B5002200230024058C4EF6FF76BD
:101E200035400584038C8488828B48F6FF752A40F0
:101E30004FF6FF452A400D8820E00000002C0140AD
:101E40000004004000080040000C0040001000406A
:101E50000014004000340140004C0140005001409B
:101E60000054014000180040001C004000200040C9
:101E70000040014000440140004801404FF6FF7619
:101E800006EA05252A434DF6FF752B400D8906EA23
:101E900005352B434D8806EA05352B43FA4DA842FC
:101EA00002D0FA4DA84208D14BF6FF752C408D891F
:101EB0004FF6FF7606EA85152C4384808283CD8811
:101EC000A0F84050038470BD828B4FF2FF331A405C
:101ED0008283828B4FF6FF7303EA01231A438283C6
:101EE0007047F0B50C461546002200210026078CED
:101EF0004EF6FF7C07EA0C070784828B018C4FF6B5
:101F0000FF7707EA043640F6FF473A404FF6FF777F
:101F100007EA05273A434FF6FF7707EA03373A43C4
:101F2000D94FB8420ED0D94FB8420BD0B0F1804F44
:101F300008D0D74FB84205D0D64FB84202D0D64FBE
:101F4000B84206D14DF6FF77394046F48057394301
:101F500005E047F6FF57394044F480573943828300
:101F60000184F0BD828B4FF6F3731A408283828B1B
:101F70000A4382837047F0B50C46154600220021C3
:101F80000026078C4FF6FF6C07EA0C070784828B4C
:101F9000018C4FF6FF7707EA04264FF60C773A409C
:101FA0004FF6FF7707EA03172F433A43B64FB8427D
:101FB0000ED0B64FB8420BD0B0F1804F08D0B44F1E
:101FC000B84205D0B34FB84202D0B34FB84206D1A1
:101FD0004FF6FF57394046F48077394305E04FF21A
:101FE000FF57394044F48077394382830184F0BD40
:101FF000028B4FF2FF331A400283028B4FF6FF73BE
:1020000003EA01231A4302837047F0B50C461546D4
:10201000002200210026078C4FF6EF7C07EA0C0710
:102020000784028B018C4FF6FF7707EA041640F60F
:10203000FF473A404FF6FF7707EA03373A434FF638
:10204000FF7707EA05273A438F4FB8420ED08F4FEC
:10205000B8420BD0B0F1804F08D08D4FB84205D0B8
:102060008C4FB84202D08C4FB84206D14FF6DF7782
:10207000394046F01007394305E04FF65F773940A5
:1020800044F01007394302830184F0BD028B4FF600
:10209000F3731A400283028B0A4302837047F0B540
:1020A0000C46154600220021068C4FF6FE773E4076
:1020B0000684028B018C4FF60C7632407E1C06EAB9
:1020C00003162E433243704EB0420ED06F4EB042D4
:1020D0000BD0B0F1804F08D06D4EB04205D06D4EA0
:1020E000B04202D06C4EB04206D14FF6FD76314080
:1020F00044F00106314305E04FF6F576314044F0F7
:102100000106314302830184F0BD70B505460C46DB
:102110005D4885420ED05D4885420BD0B5F1804FB9
:1021200008D05B48854205D05A48854202D05A48BB
:10213000854200D100E000BF208850B92389A288E1
:1021400061882846FFF7ABFFE1882846FFF79EFF2E
:1021500025E0208804280AD12389A288618828469E
:10216000FFF753FFE1882846FFF742FF17E020887A
:1021700008280AD12389A28861882846FFF7FBFE38
:10218000E1882846FFF7EEFE09E02389A2886188EE
:102190002846FFF7A6FEE1882846FFF795FE70BDAA
:1021A0002DE9F04105460C4600260127608808B954
:1021B000022600E00026A088012801D1022700E0C5
:1021C00001272088A0B92389A28861882846FFF7C3
:1021D00066FFE1882846FFF759FF23893A463146D2
:1021E0002846FFF712FFE1882846FFF701FF13E0BA
:1021F0002389A28861882846FFF707FFE1882846DF
:10220000FFF7F6FE23893A4631462846FFF747FF97
:10221000E1882846FFF73AFFBDE8F0810A884B883D
:102220001A438B881A43CB881A430B891A434B896C
:102230001A438B891A43A0F8442070474FF6FF7168
:10224000818000210180C18041800172704700219E
:10225000018041808180C180018141818181C18172
:102260007047002101804180012181800021C180CF
:10227000018170470021018041808180C1800181FE
:102280004181818170470000002C014000340140F1
:102290000004004000080040000C004021B102880A
:1022A00042F00102028004E002884FF6FE731A40F9
:1022B0000280704731B1B0F8442042F40042A0F8E7
:1022C000442005E0B0F84420C2F30E02A0F84420F8
:1022D00070471AB183890B43838102E083898B4362
:1022E000838170478182704741EA0203A0F8483039
:1022F00070471AB183890B43838102E083898B4342
:102300008381704701894FF6F8721140018170474F
:102310000A46002101894FF68F731940114301814C
:10232000704730B504460D4629462046FFF7F0FFBA
:10233000208940F00700208130BD2DE9F04104469E
:102340000D4616461F46602D06D13B4601223146FA
:102350002046FFF75AFE05E03B4601223146204663
:10236000FFF79DFE29462046FFF7D2FF208940F067
:1023700007002081BDE8F08130B50C4600210189BD
:10238000C9B24FF6FF7505EA0325154325432943D6
:10239000018130BD2DE9F04105460E4617469846AD
:1023A000002443463A4631462846FFF7E5FF2C898C
:1023B0004FF6F870044044F007044FF68F70044065
:1023C00044F070042C81BDE8F081F0B504460D4660
:1023D00016461F463B46324629462046FFF7CCFFAD
:1023E000208940F480402081F0BD018582827047C1
:1023F0000A46002101884FF68F731940114301806E
:102400007047F0B50C4615461E46002100220023F9
:102410000189028B038C4FF6F877394021434FF640
:10242000FC473A4040F201173A434FF6DD773B4014
:102430004FF6FF7707EA06172F433B4301810283DC
:102440000384F0BD0A460021018B4FF68F731940BB
:102450001143018370470A460021018B48F6FF7340
:1024600019404FF6FF7303EA0223194301837047B3
:102470000A460021818B4FF68F73194011438183E7
:1024800070470A460021818B48F6FF7319404FF6CA
:10249000FF7303EA022319438183704721B1028845
:1024A00042F08002028004E002884FF67F731A40F7
:1024B0000280704721B1828842F00402828004E0E9
:1024C00082884FF6FB731A408280704721B1828860
:1024D00042F00802828004E082884FF6F7731A40C7
:1024E0008280704721B1828842F00102828004E03C
:1024F00082884FF6FE731A40828070470A46002198
:10250000018B4FF6F77319401143018370470A4658
:102510000021018B4FF2FF7319404FF6FF7303EA5E
:1025200002231943018370470A460021818B4FF62D
:10253000F77319401143818370470A460021818B4C
:102540004FF2FF7319404FF6FF7303EA022319435A
:10255000818370470A460021018B4FF6FB731940B7
:102560001143018370470A460021018B4FF6FF3368
:1025700019404FF6FF7303EA0223194301837047A2
:102580000A460021818B4FF6FB731940114381836A
:1025900070470A460021818B4FF6FF3319404FF6F2
:1025A000FF7303EA02231943818370470A4600211F
:1025B000018B4FF67F7319401143018370470A4620
:1025C0000021018BC1F30E014FF6FF7303EA0223D2
:1025D0001943018370470A460021818B4FF67F73B0
:1025E00019401143818370470A460021818BC1F352
:1025F0000E014FF6FF7303EA0223194381837047EC
:102600000A460021018C4FF6FD73194011430184E5
:1026100070470A460021018C4FF6F77319401143A9
:10262000018470470A460021018C4FF6DF73194080
:102630004FF6FF7303EA02131943018470470A46F9
:102640000021018C4FF67F7319404FF6FF7303EAA8
:1026500002131943018470470A460021018C4FF68A
:10266000FF5319404FF6FF7303EA02231943018415
:1026700070470A460021018C4FF2FF7319404FF654
:10268000FF7303EA02231943018470470A460021BD
:10269000018C4DF6FF7319404FF6FF7303EA0233C6
:1026A00019430184704730B5002301248C40A3B244
:1026B000048C9C430484048C02FA01F5ADB22C43D3
:1026C000048430BD30B5002304248C40A3B2048CB4
:1026D0009C430484048C02FA01F5ADB22C430484BB
:1026E00030BD70B50346002000241846183001257F
:1026F0008D40ACB21D8CA5431D8409B1082909D1B8
:1027000000EB6100056825F070050560056815435C
:1027100005600EE00D1FC5F34E052844056825F43D
:10272000E045056005684FF6FF7606EA0226354368
:10273000056070BD21B1028842F00202028004E00F
:1027400002884FF6FD731A400280704721B102885B
:1027500042F00402028004E002884FF6FB731A4044
:102760000280704721B1828842F08002828004E0BA
:1027700082884FF67F731A408280704702884FF636
:10278000F7731A40028002880A43028070478288E9
:102790004FF68F731A40828082880A438280704786
:1027A00002894FF6F8731A40028102890A430281B6
:1027B000704702894FF67F731A40028102890A43EB
:1027C0000281704781847047818570478186704798
:1027D0000187704781877047A0F8401070470288D2
:1027E0004FF6FF431A40028002880A430280704776
:1027F0000146888E70470146088F70470146888FD2
:1028000070470146B1F8400070470146888C704718
:102810000146088D704702460020138A0B400BB119
:10282000012000E000207047CA430282704730B5A3
:102830000246002000230024158A05EA0103958939
:1028400005EA010413B10CB1012000E0002030BD05
:10285000CA4302827047000031490143314A116086
:10286000704770B5002100230F22C47804B32D4CAB
:10287000246804F4E064C4F5E064210AC1F10403AF
:10288000CA40447804FA03F18478144021430901D2
:10289000254C0678A155047804F01F050124AC40AE
:1028A00005786D11AD0005F1E025C5F8004109E09E
:1028B000047804F01F050124AC401C4D0678761105
:1028C00045F8264070BD1A4A0A400243154B1B1FAB
:1028D0001A60704739B1134A121D12680243114B36
:1028E0001B1D1A6006E00F4A121D126882430D4B31
:1028F0001B1D1A607047042808D14FF0E0210969B8
:1029000041F004014FF0E022116107E04FF0E021B7
:10291000096921F004014FF0E022116170470000C5
:102920000000FA050CED00E000E400E080E100E0CA
:1029300080FFFF1F10B50446FA48844208D10121E8
:102940004015FEF72DFE00216015FEF729FE17E069
:10295000F548844208D101210015FEF721FE00212F
:102960002015FEF71DFE0BE0F048844208D101213E
:10297000C803FEF715FE00214FF40040FEF710FEDD
:1029800010BD30B50246002000235068E84C2040BE
:102990000D790C6844EA0524204350609068E54CAA
:1029A0002040D1E902542C434D7944EA45042043A8
:1029B0009060D06A20F470000C7C641EE4B2234363
:1029C00040EA0350D06230BD0021016001714171C5
:1029D0008160C16001210174704721B1826842F0B9
:1029E0000102826003E0826822F001028260704787
:1029F00021B1826842F48072826003E0826822F42E
:102A000080728260704710B50023CBB21AB144685F
:102A10001C43446002E044689C43446010BD8168EC
:102A200041F0080181607047014600208A6802F089
:102A300008020AB1012000E000207047816841F0DF
:102A4000040181607047014600208A6802F0040298
:102A50000AB1012000E00020704721B1826842F4F1
:102A6000A002826003E0826822F4A00282607047C4
:102A7000014600208A6802F480020AB1012000E0C9
:102A80000020704710B50A4600210023416821F458
:102A90006041531E41EA4331416010BD21B142689B
:102AA00042F40062426003E0426822F40062426045
:102AB0007047F0B504460D4600200021092D11DDB8
:102AC000E068A5F10A0606EB4607072606FA07F1B5
:102AD0008843A5F10A0606EB460603FA06F1084309
:102AE000E0600CE0206905EB4507072606FA07F1D0
:102AF000884305EB450603FA06F108432061072ADF
:102B00000FDA606B561E06EB86071F2606FA07F1E2
:102B10008843561E06EB860605FA06F108436063F5
:102B200022E00D2A0FDA206BD61F06EB86071F2640
:102B300006FA07F18843D61F06EB860605FA06F16A
:102B40000843206310E0E06AA2F10D0606EB860759
:102B50001F2606FA07F18843A2F10D0606EB86064A
:102B600005FA06F10843E062F0BD21B1826842F443
:102B70008012826003E0826822F4801282607047D3
:102B80000146C86C80B2704766484C300068704798
:102B900021B1426842F48062426003E0426822F45C
:102BA00080624260704721B1426842F480524260C4
:102BB00003E0426822F48052426070470A460021D6
:102BC000816821F4E04111438160704721B182683E
:102BD00042F40042826003E0826822F40042826094
:102BE000704721B1826842F40212826003E0826879
:102BF00022F4021282607047014600208A6802F4C3
:102C000000120AB1012000E000207047F0B5044630
:102C10001546002000220026092911DDE068A1F1F7
:102C20000A0707EB470C072707FA0CF29043A1F1BC
:102C30000A0707EB470703FA07F21043E0600CE0CE
:102C4000206901EB410C072707FA0CF2904301EBD6
:102C5000410703FA07F210432061A06BC0F301564D
:102C6000EF1C06F1010CA7EB0C0707EB870C1F27E5
:102C700007FA0CF29043EF1C06F1010CA7EB0C07CE
:102C800007EB870701FA07F21043A063F0BD10B508
:102C90000A4600210023816B21F44011531E41EAB2
:102CA0000351816310BD08B5002300930090009B81
:102CB0000B440093009B1A6008BD08B50246002033
:102CC0000090009201F12800009B184400900098A9
:102CD000006880B208BD0A4600214168164B1940C1
:102CE0001143416070474162826270470A46002189
:102CF000416821F01F0111434160704740B109490B
:102D00000831096841F40001064A0832116007E001
:102D100004490831096821F40001024A08321160AF
:102D2000704700000024014000280140003C0140A1
:102D3000FFFEF0FFFDF7F1FFFFFD3FFF0246002021
:102D400013680B400BB1012000E000207047CA431C
:102D50000260704770B502460020002300240B1269
:102D60005568CEB205EA060415681D4015B10CB1D0
:102D7000012000E0002070BD00220A12D34303604E
:102D80007047000010B501210846FEF7EFFB012156
:102D90004804FEF7F8FB01210420FEF7E7FB0121C0
:102DA0000820FEF7E3FB01211020FEF7DFFB0121E5
:102DB0004803FEF7DBFB01210846FEF7E4FB012197
:102DC0000220FEF7E0FB01210420FEF7DCFB0121DD
:102DD0002020FEF7D8FB01214FF40170FEF7C6FB5F
:102DE0004FF40040FEF726FB10BD10B50121102066
:102DF000FEF7BCFB4FF4E050E14908801020C8709A
:102E000003208870DF48FEF7F5F82020DC490880B1
:102E10001020C87003208870DB48FEF7EBF82021F3
:102E2000D948FEF794F9D648FEF76FF90320D44944
:102E300008804820C870D548FEF7DCF8D048FEF777
:102E400064F9C020CE4908804820C870CF48FEF7FA
:102E5000D1F8CB48FEF759F9C020C949088048206D
:102E6000C870C948FEF7C6F81020C549C8700320CD
:102E700088704FF400400880C348FEF7BBF84FF459
:102E80000041C148FEF763F94FF48060BC490880F7
:102E90000420C870BD48FEF7ADF84FF40070B84983
:102EA0000880032088701820C870B848FEF7A2F880
:102EB0001020B349C870032088704EF208000880C3
:102EC000B048FEF797F84FF48070AD490880AE48DF
:102ED000FEF790F82020AA490880AC48FEF78AF84F
:102EE0002021AA48FEF735F94FF47070A4490880F4
:102EF0001820C87003208870A248FEF77BF8802154
:102F0000A048FEF724F94FF480719E48FEF71FF9A0
:102F100002209B4908800020C8709C48FEF76AF890
:102F200040219848FEF715F910BD7FB505460C46BF
:102F3000ADF80850ADF804400020ADF80A00ADF837
:102F4000060001A99248FEF74DFE01221146904865
:102F5000FFF7BFF91D208DF8000000208DF801005B
:102F600003208DF8020001208DF803006846FFF76A
:102F700078FC00218648FFF791F97FBD30B589B014
:102F800004460D4601214803FEF7F0FA01210846E8
:102F9000FEF7ECFA01211020FEF7E8FA4020ADF828
:102FA000200018208DF8230003208DF8220008A9A6
:102FB0007448FEF71FF8ADF814500020ADF8160065
:102FC000ADF81840ADF81A008DF81C0005A971483D
:102FD000FEF708FE7020ADF804000120ADF80600F1
:102FE0000020ADF808000220ADF80C000020ADF87C
:102FF0000E004FF48070ADF810000020ADF8120004
:1030000001A96448FEF72BFE01A96248FEF701FF03
:1030100001216048FFF74EF908215E48FFF777FA73
:1030200040F2F3115B48FFF7D1FB09B030BD10B59A
:103030004FF4A060FFF710FC3720574908700120BB
:10304000C87002204870012088700846FFF709FC0C
:1030500000214FF00060FFF736FC42F20F704F493D
:10306000888041F61F4008800020C8804880087290
:103070004B48FEF7B7FD01214948FFF767FB0121E7
:103080004748FFF70BF9012211464548FFF721F9A0
:1030900010BD00B585B04348FFF74CFC0020009000
:1030A0008DF804008DF805004FF460200290002098
:1030B000039001208DF8100069463A48FFF761FC43
:1030C00001213848FFF789FC3648FFF7A8FC00BF0C
:1030D0003448FFF7A9FC0028FAD13248FFF7AEFCCC
:1030E00000BF3048FFF7AFFC0028FAD105B000BDA3
:1030F00010B5FFF747FEFFF778FEFFF7CAFF0A217A
:1031000040F2E730FFF711FF0A2140F2E730FFF706
:1031100035FFFFF78CFF00202349086010BD10B574
:1031200004460723012221461E48FFF7C2FC012165
:103130001C48FFF792FC00BF02211A48FFF7FEFD72
:103140000028F9D01748FFF71BFD10BD2DE9F0410D
:1031500007460C46002500260AE03846FFF7DFFF49
:103160000544124805600520FDF738FD701CC6B205
:10317000A642F2DBB5FBF4F080B2BDE8F0810000BE
:103180006400002000100140000C014000080140D4
:103190000004004000340140680000208A01002043
:1031A0000014004000240140740000206000002052
:1031B00010B50446002C09DD4FF48071B748FDF7C7
:1031C000C6FF4FF40051B648FDF7C1FF002C09DAE5
:1031D0004FF48071B148FDF7BAFF4FF40051B04889
:1031E000FDF7B7FF10BD10B50121AE48FFF756F847
:1031F0000121AD48FFF752F810BD10B50020AB49D2
:1032000008600120FFF7D4FF4FF4FA50A849086086
:10321000FFF7E9FF00BFA74800680028FBD00020A7
:10322000A4490860FF2000F001FAFF2000F0FEF939
:10323000022000F0FBF9002000F0F8F9022000F075
:10324000F5F9012000F0F2F9002000F0EFF9052077
:1032500000F0ECF942F20F7140F2E730FFF78EFE1A
:10326000642093490860012090490860FFF7BBFF84
:103270004FF4FA60FDF7B2FC00208C4908608D49DC
:1032800008600A2140F2E730FFF778FE4FF0FF3088
:10329000FFF78EFF41F6583085490860FFF7A3FF1E
:1032A00000BF844800680028FBD0002081490860E6
:1032B0004FF480717948FDF74CFF10BD10B5012027
:1032C000FFF776FF4FF47A60794908600A2140F2EF
:1032D000E730FFF753FEFFF786FF00BF7548006831
:1032E0000028FBD000207349086042F20F7140F2C1
:1032F000E730FFF743FE64206D49086001206B4909
:103300000860FFF770FF10BD10B500216548FEF79B
:10331000C5FF00216448FEF7C1FF0A2140F2E730F3
:10332000FFF72CFE00206349086060490860401EDA
:10333000FFF73EFF40F6B8305D490860FFF753FFE6
:1033400000BF5C4800680028FBD000205949086095
:103350004FF480715148FDF7FCFE10BD10B50021FF
:103360005048FEF79BFF00214F48FEF797FF0A21C8
:1033700040F2E730FFF702FE00204E4908604B495B
:1033800008600120FFF714FF4FF47A604849086095
:10339000FFF729FF00BF474800680028FBD0002046
:1033A0004449086042F20F7140F2E730FFF7E6FD52
:1033B00064203F49086001203C490860FFF713FF83
:1033C0004FF4FA60FDF70AFC00213648FEF766FF6D
:1033D00000203649086037490860FF2000F026F9D0
:1033E000FF2000F023F9022000F020F9002000F077
:1033F0001DF9022000F01AF9012000F017F9002051
:1034000000F014F9052000F011F90A2140F2E7302C
:10341000FFF7B4FD4FF0FF30FFF7CAFE41F658301A
:1034200023490860FFF7DFFE00BF2248006800283C
:10343000FBD000201F4908604FF480711748FDF74A
:1034400088FE10BD10B50120FFF7B2FE42F6F8204D
:1034500017490860FFF7C7FE00BF1648006800283C
:10346000FBD000201349086010BD10B54FF0FF30AD
:10347000FFF79EFE42F210700D490860FFF7B3FEA1
:1034800000BF0C4800680028FBD0002009490860F4
:103490004FF480710148FDF75CFE10BD000C014047
:1034A000001001400004004000340140780000207A
:1034B000700000207400002010B504468C212046C6
:1034C00000F02EF910BD10B50146D1F88420885CBB
:1034D000D1F88420521C812392FBF3F403FB1422C5
:1034E000C1F8842010BD10B5D0F888208154D0F8E0
:1034F0008820521C812392FBF3F403FB1422C0F8B2
:10350000882010BD0FB421982299884202D1012051
:1035100004B070470020FBE70FB42298401C8121C3
:1035200090FBF1F201FB12002199884202D10120A7
:1035300004B070470020FBE710B586B004460121B7
:1035400044F20400FEF712F85848FEF773F84FF4FF
:103550000070ADF8140003208DF8160018208DF8C7
:10356000170005A95248FDF745FD4FF48060ADF8FE
:10357000140004208DF8170005A94D48FDF73AFD09
:1035800001940020ADF80800ADF80A00ADF80C0079
:10359000ADF810000C20ADF80E0001A94348FEF76D
:1035A0008CF825208DF8000000208DF80100022005
:1035B0008DF8020001208DF803006846FFF751F9ED
:1035C000012240F225513948FEF70FF90121374811
:1035D000FEF7FFF806B010BD10B5A0B040F22551BF
:1035E0003248FEF7E7F9F8B17C223249684600F02C
:1035F00065F8304810380FC8FFF78EFF18B100206B
:103600002D4908600BE001202B4908602748FEF790
:1036100051F9C4B2214627481038FFF764FF40F241
:1036200025512248FEF7F0F920B010BD10B5044630
:1036300021461E48FEF73AF900BF40211B48FEF71D
:10364000A3F90028F9D010BD1FB50446009400204E
:10365000ADF80400ADF80600ADF80800ADF80C00B8
:103660000C20ADF80A0069461048FEF726F81FBD89
:1036700070B504460D46E1B20C48FEF717F900BFDD
:1036800080210A48FEF780F90028F9D0204670BD55
:1036900010B5044600BF20210448FEF775F9002844
:1036A000F9D00248FEF706F910BD000000380140CD
:1036B00000080140900000207C00002010B5203A56
:1036C000C0F00B80B1E81850203AA0E81850B1E8DB
:1036D0001850A0E81850BFF4F5AF5FEA027C24BF91
:1036E000B1E81850A0E8185044BF18C918C0BDE888
:1036F00010405FEA827C24BF51F8043B40F8043B51
:1037000008BF7047D20728BF31F8023B48BF11F805
:10371000012B28BF20F8023B48BF00F8012B70475F
:103720004FF0000200B5134694469646203922BF5A
:10373000A0E80C50A0E80C50B1F12001BFF4F7AFA5
:10374000090728BFA0E80C5048BF0CC05DF804EB87
:10375000890028BF40F8042B08BF704748BF20F8F5
:10376000022B11F0804F18BF00F8012B70477047F3
:1037700070477047754600F029F8AE460500694667
:10378000534620F00700854618B020B5FDF7D0FA63
:10379000BDE820404FF000064FF000074FF0000852
:1037A0004FF0000B21F00701AC46ACE8C009ACE8D3
:1037B000C009ACE8C009ACE8C0098D4670470446B2
:1037C000AFF300802046FCF7FAFC00000048704789
:1037D0009401002001491820ABBEFEE7260002003C
:1037E0007047000090EA010F48BF81F0004100F1EE
:1037F000AE80421A3CBF801A89184FEAD0524FF06F
:103800007F4C1CEA410FA2EBD15318BF9CEA026F18
:1038100000F03B804FF0004C4CEA00204CEA0121C4
:1038200021FA03FC10EB0C0C1ED202F1FF325FEA0E
:103830001C2040EBC25038BF70471CF07F0F4FEA8E
:10384000400C18BFBCF17F4F38BF7047C3F1200355
:10385000994008BF20F00100BCF17F4F38BF70478E
:10386000A0F1C04000F066B84FEA3C00000A40EB0F
:10387000C25028BF1CF0FF0F4FEA400CE6D018BF23
:10388000BCF17F4F38BF7047EAE79CEA026F05D072
:1038900010EA5C0F08BF00F00040704710B500F060
:1038A00003F800BF64FBBE3E0EF1020E2EF0030EC5
:1038B0005EF8044B244204D44FEA4102B2F17F4F38
:1038C00011D84FEA4003B3F17F4F0CD80ED14FEA25
:1038D000D07CB2F17F4F0CEB4C0C0CF1020C08BF0A
:1038E0004CEBD17C04E04FF0080C01E04FEAD17CB6
:1038F0000CEB4C0324FA03F404F00704B4F1040CB9
:1039000006D20EEB840CBDE810404CF0010C604771
:10391000DFE80CF0070802024FF00040A0F580003D
:1039200010BD0846420018BFD2F1807288BF00F077
:10393000004010BDFF2141EAD050C0057047000093
:1039400090EA010F48BF81F000413FF552AF421AA3
:1039500004D882F00042A0EB020011444FEAD0529A
:103960004FF07F4C1CEA410FA2EBD15318BF9CEAE9
:10397000026F4AD04FF0004C4CEA00204CEA012183
:1039800021FA03FCB0EB0C0C0FD412F0FE0F36D072
:103990005FEA4C001DD5001240EBC25038BF7047A3
:1039A0001CF03F0F18BF70470BE0A2F101025FEA65
:1039B0001C2040EBC25038BF70471CF07F0F18BF6F
:1039C0007047C3F12003994014BF401E20F001004E
:1039D000704780084FEA122308BF7047B0FA80FC96
:1039E000A2EB0C02CCF1280C60FA0CF093EA122F37
:1039F00004BF00EBC25070474FEAC3707047130A10
:103A00005FEADC1008BF7047F6E79CEA026F04D05B
:103A100010EA5C0F08BF0020704710B5FFF744FFA5
:103A200040DFF63E81F00040704700004C3A00084D
:103A300000000020800000006C010008CC3A000863
:103A400080000020780700008801000800000000C6
:103A50000000000000000000000000000000000066
:103A60000000000000000000000000000000000056
:103A70000000000000000000010000000000000045
:103A80000100000000A24A04000000000000000045
:103A900001020304060708090000000001020304F4
:103AA00001020304060708090204060800000000DA
:103AB0000000000000000000000000000000000006
:0C3AC000000000000000000000000000FA
:0400000508000131BD
:00000001FF
